:100000000C94D3010C9404020C9404020C9404028A
:100010000C9404020C9404020C9404020C94040248
:100020000C9404020C9404020C9404020C94040238
:100030000C9404020C9404020C9404020C94040228
:100040000C9404020C9404020C9404020C94040218
:100050000C9404020C9404020C9404020C941B0CE7
:100060000C9404020C94A5120C94CD110C9404026F
:100070000C9404020C9404020C9404020C940402E8
:100080000C9404020C9404020C9404020C940402D8
:100090000C9472120C948E110C9404020C940402B1
:1000A0000C9404020C9404020C9404020C940402B8
:1000B0000C9404020C9404020C9404020C940402A8
:1000C0000C9404020C9404020C9404020C943F124D
:1000D0000C944F110C9404020C940C120C941011FB
:1000E0000C94040203130613F912FD123D130A13B4
:1000F0000E13141318131C13221326132A133D1363
:10010000301334133813B713BC13C113CB13441477
:10011000D513DD13E513EF13F913031412141C1494
:100120004414261430143A140C94BD030C941B028E
:100130000C94650C0C94B60E0C9472140C94D50DA2
:100140000C94FD0E0C9415020C94E10E0C94B10469
:100150000C9411080C94E5130C9444140C94FD12A7
:100160000C940A130C9430140C94C1130C942613A1
:100170000C94C0030C94EC0D0C9412140C948D0C84
:100180000C94E0100C94B00C0C9417030C94F9131D
:100190000C9432030C94B4040C9406070C943D1395
:1001A0000C9447030C9425030C94D90D0C94C303B1
:1001B0000C94BC130C941F020C9403140C9438136D
:1001C0000C940E020C945B0D0C940D0F0C946403B4
:1001D0000C9406020C9418130C945E030C94B71341
:1001E0000C94D10D0C941A0E0C941C140C944B0509
:1001F0000C9445050C94C10D0C9430130C942802FA
:100200000C943A140C94DD130C9421050C941413E3
:100210000C9426140C9467030C9411020C9418028D
:100220000C94EF130C94CB130C94740E0C94D51304
:100230000C94BF0F0C94B7040C9461030C9403133B
:100240000C94FD040C9434130C940B020C94DF07F3
:100250000C9406130C942D050C940E130C9422137D
:100260000C94AE080C941C130C941E030C945B03AA
:100270000C94F9120C942A130C94F70D0C94390574
:100280000C94C10E050505050705080808080202BB
:1002900002020A0A08080404040401010101010120
:1002A00001010303030303030303040707070C0C03
:1002B0000C0C0C0C0C0C02020202060606060606CA
:1002C00006060B0B0B0B0B0B0B0B0102102020086F
:1002D00008102040102040800201020108040201A1
:1002E0000102040810204080804020100804020110
:1002F0008004020180402010080402010804020169
:1003000001020408102040800102040810204080EF
:10031000000020002300260029002C002F003200BE
:100320000001000003010601090100002100240072
:1003300027002A002D0030003300010100000401D5
:1003400007010A0100002200250028002B002E00D2
:100350003100340002010000050108010B0100001A
:10036000090A02080B0C0D07060304010000000037
:10037000000000000000000000000000000000007D
:100380000000000000000000000011100F0000003D
:10039000000000000000000000000000000000005D
:1003A00000000000721411241FBECFEFD1E2DEBFA7
:1003B000CDBF00E00CBF14E0A0E0B2E0E6E0FCE35B
:1003C00000E00BBF02C007900D92AC38B107D9F71F
:1003D0002CE0ACE8B4E001C01D92A339B207E1F70C
:1003E00011E0C3EDD1E000E006C021970109802FA4
:1003F000FE010E94CB1DC23DD10780E00807A9F78E
:100400000E9453170C9488190C9400008A579B4F34
:10041000FC018081089580EE92E0089581E093E0F0
:100420000895FC0186859785089580E193E00895FD
:1004300081E393E00895FC01838594850895DB01B1
:100440002C91FC0120870184F285E02D06961994F9
:10045000AF92BF92CF92DF92EF92FF920F931F93D2
:10046000CF93DF9300D01F921F92CDB7DEB76436D3
:1004700071053CF0FC01EA57FB4F2081222309F46F
:1004800077C0DA017B018C01BC01615E7D4FED918B
:10049000FC910190F081E02DCA011995680128EEC8
:1004A000C21A2DEFD20A2FEFD6012C93F801E75E86
:1004B000FD4F2EEF208331968083319690833196C5
:1004C000292F280F209520833196E0821696FC92E2
:1004D00045E050E020E030E0DC011696A417B507B7
:1004E00034F06191260F311D4F5F5F4FF7CF7C01D4
:1004F000B8E0EB0EF11C800F911FFC01E15EFD4F97
:1005000020952083E1E0EE16E2E0FE06BCF4560101
:10051000C5018C199D098E159F056CF5D8011296A1
:100520008D919C911397F50161915F01DC01ED9133
:10053000FC910190F081E02D1995EACF82E392E0E1
:100540009A83898383E08B838FE393E09D838C83FD
:10055000D801ED91FC910190F081E02DAE014F5F4B
:100560005F4F67E070E0C80119958FEF9FEF04C0FF
:1005700080E090E001C0C7010F900F900F900F90A6
:100580000F90DF91CF911F910F91FF90EF90DF902F
:10059000CF90BF90AF900895CF92DF92EF92FF92ED
:1005A000FC011082118212821382DB0120E030E014
:1005B0004D9150E0022E02C0440F551F0A94E2F7FD
:1005C000052E000C660B770BC080D180E280F38093
:1005D0004C295D296E297F2940835183628373836F
:1005E000285F3F4F2032310519F7FF90EF90DF90E1
:1005F000CF900895CF92DF92EF92FF9220E030E00B
:100600006A017B01022E04C0F694E794D794C79444
:100610000A94D2F7FC01C192CF01285F3F4F2032EC
:10062000310571F7FF90EF90DF90CF900895FB01B7
:100630002081FC01228381E090E00895FC01828109
:10064000FB01808381E090E00895FB0140815181AE
:1006500062817381FC01428353836483758384E0E8
:1006600090E008950F931F93CF93DF938C01EC01DB
:100670002696CE010E942503D8011C96ED91FC918F
:100680001D97CE01DF91CF911F910F911994DC013D
:10069000FB0112964C91129713962C911397149676
:1006A0009C91149715968C91408321839283838328
:1006B00084E090E0089588E793E0089586E092E072
:1006C000089589E993E008958AEB93E008954F92A5
:1006D0005F926F927F928F929F92AF92BF92EF92B2
:1006E000FF920F931F93CF93DF9300D01F92CDB74C
:1006F000DEB77C018B01FB018191BF01F701828391
:10070000CE0101960E94CC0289819A81AB81BC8185
:100710004C015D01F5E08F0E911CA11CB11CA801DC
:100720004C5F5F4FFA0125E030E02901612C712C0C
:10073000481459046A047B0428F4618161932F5F93
:100740003F4FF3CFF801E80FF91F1482F7015483EC
:10075000438305960F900F900F900F90DF91CF91EC
:100760001F910F91FF90EF90BF90AF909F908F904F
:100770007F906F905F904F9008958DEC93E0089577
:100780008EEE93E008954F925F926F927F928F92D8
:100790009F92AF92BF92CF92DF92EF92FF920F9310
:1007A0001F93CF93DF93CDB7DEB72C970FB6F89496
:1007B000DEBF0FBECDBF7C018B01DB018C9190E0D1
:1007C000F7019383828311962C91922B93838283DA
:1007D0006E5F7F4FCE0101960E94CC0289809A8085
:1007E000AB80BC8024013501F6E04F0E511C611C2A
:1007F000711C98012B5F3F4FF90186E090E0AC013E
:1008000060E070E0441555056605770520F44181E8
:1008100041930196F4CFF801E80DF91D1582D70137
:1008200015963C932E931497B4016A5F7F4F600F27
:10083000711FCE0105960E94CC02BAE08B0E911C6E
:100840004D805E806F807884A401092C000C660BBB
:10085000770B440D551D661D771DD801A80DB91DD8
:10086000CD01801B910B5C01C12CD12CA416B506C7
:10087000C606D70628F48D91FD0132978083F0CF0C
:100880005401A40CB51CB8016A0D7B1DFB01319706
:100890001082C4010197800F911FF701978386830F
:1008A000CE0109960E94CC0295012C5F3F4F8985AD
:1008B0009A85AB85BC852901032E000C6608770854
:1008C000480E591E6A1E7B1EF5013396E00FF11F7C
:1008D000A9014A01A12CB12C84149504A604B704E3
:1008E00028F4618161934F5F5F4FF3CF820F931FB5
:1008F000F801E80FF91FDF0111971C92215031090F
:10090000020F131FD70119961C930E93189721817C
:10091000428150E060E070E0BA0155274427522B35
:100920002081422B2381722BF701428753876487F2
:10093000758704962C960FB6F894DEBF0FBECDBF18
:10094000DF91CF911F910F91FF90EF90DF90CF90AB
:10095000BF90AF909F908F907F906F905F904F90DF
:10096000089587E094E0089588E294E00895FC01FA
:10097000DB014C9150E060E070E04283538364837C
:10098000758311968C911197582B428353836483FE
:10099000758312968C911297682B428353836483DC
:1009A000758313968C911397782B428353836483BA
:1009B000758314964C91149750E060E070E0468384
:1009C00057836087718715968C911597582B4683AE
:1009D00057836087718716968C911697682B46838C
:1009E00057836087718717968C91782B468357833E
:1009F0006087718788E090E00895DC01FB01129622
:100A00008C911297808313968C91139781831496FF
:100A10008C911497828315968C91159783831696E3
:100A20008C911697848317968C91179785831896C7
:100A30008C911897868319968C91878388E090E033
:100A40000895FC018281811103C060E070E002C062
:100A50006FEF70E08AE00C948E13FC0182818111AB
:100A600003C060E070E002C06FEF70E08BE00C94B8
:100A70008E13FC018281811103C060E070E002C02E
:100A80006FEF70E08CE00C948E13FC016281738137
:100A900089E00C948E132F923F924F925F926F9247
:100AA0007F928F929F92AF92BF92CF92DF92EF92FE
:100AB000FF920F931F93CF93DF93CDB7DEB760976D
:100AC0000FB6F894DEBF0FBECDBF8C016B01DB010A
:100AD0008D909D90AD90BC90FC0182819381A4810A
:100AE000B58188159905AA05BB0570F4B401660F98
:100AF000771F660F771F828593850E948B19D80117
:100B00001B969C938E931A97F80182829382A482FB
:100B1000B5829601812C912C540144E050E0B8013B
:100B20006A5F7F4F2C5F3F4FF80182819381A481E0
:100B3000B581FA0134961F0188169906AA06BB06EC
:100B400050F5D9011196FC90119712968C9190E076
:100B5000A0E0B0E0DC01992788279F29F901F08007
:100B60008F29F380BF29F80186839783A087B187F7
:100B7000DA01A101149782859385A80FB91F84E03B
:100B8000FB0101900D928A95E1F7FFEF8F1A9F0A02
:100B9000AF0ABF0AC7CF4601840E951ED4018C91BF
:100BA00011969C91119712964C901297512C612C92
:100BB000712C320155244424592A482A13968C91C9
:100BC000782A5F01F80184859585A685B785841507
:100BD0009505A605B70570F4B201660F771F660F7D
:100BE000771F848995890E948B19D80155969C930B
:100BF0008E935497F8014486558666867786C4019D
:100C0000412C512C32019801205F3F4FD8011C9696
:100C10004D915D916D917C911F97F501349644162D
:100C200055066606770698F5DC011596FC90159733
:100C300016964C91169750E060E070E0BA01552787
:100C400044275F291496FC9014974F291796FC901F
:100C50007F29D80150964D935D936D937C93539764
:100C60005F01AC014819590954960D90BC91A02D13
:100C7000A40FB51F44E0F90101900D924A95E1F7E8
:100C8000BFEF4B1A5B0A6B0A7B0A0496BFCFD601F3
:100C9000AA0DBB1D8C9111969C91119712968C9068
:100CA0001297912CA12CB12C540199248824992AB3
:100CB000882A13968C91B82A7F01F8018689978932
:100CC000A08DB18D88159905AA05BB0560F4B40106
:100CD000660F771F848D958D0E948B19D8015D96C4
:100CE0009C938E935C97F801868A978AA08EB18E2A
:100CF000212C312C812C912C54019801265E3F4FE0
:100D00003A872987F80186899789A08DB18D881641
:100D10009906AA06BB0608F05FC0B6016E0D7F1DDE
:100D2000CE0101960E94CC0297012C5F3F4F388B79
:100D30002F8749815A816B817C81C901330FAA0BAE
:100D4000BB0B2C013D01440E551E661E771E4B86C3
:100D50005C866D867E8623E0E20EF11CF601EE0DC8
:100D6000FF1D2F853889C901A0E0B0E04B845C8469
:100D70006D847E8484159505A605B70528F4A181A8
:100D8000A1932F5F3F4FEFCF6F847888460D571D9B
:100D9000F601E40FF51F31971082C30101978C0D06
:100DA0009D1DD8015B969C938E935A977A015C9611
:100DB000ED91FC915D97E20DF31DA985BA858D91AA
:100DC0009C9191838083BFEF8B1A9B0AAB0ABB0A6D
:100DD000E2E02E0E311C96CFC70160960FB6F89454
:100DE000DEBF0FBECDBFDF91CF911F910F91FF905E
:100DF000EF90DF90CF90BF90AF909F908F907F90BB
:100E00006F905F904F903F902F9008954F925F9218
:100E10006F927F92AF92BF92CF92DF92EF92FF924A
:100E20000F931F93CF93DF93EC018B018A81FB011A
:100E300080838B8181838C8182838D818383DB019D
:100E400040E050E0BA01E4E0F0E01496CA80DB80B4
:100E5000EC80FD80CF0104964C155D056E057F0585
:100E6000C8F42A853B85E20FF31F3497D080F180C8
:100E700032812381DC921196FC92119712963C9359
:100E8000129713962C931397FC014F5F5F4F6F4F90
:100E90007F4FDBCF5F01A00EB11E2C85F5012083B3
:100EA0002D8521832E8522832F852383D50140E044
:100EB00050E0BA01CC84DD84EE84FF849C012C5F79
:100EC0003F4F4C155D056E057F05F8F4CD018A197D
:100ED0009B09EC88FD888E0D9F1DFC01D080E18070
:100EE000F28083811496DC9214971596EC921597F4
:100EF0001696FC92169717968C931797C9014F5F19
:100F00005F4F6F4F7F4F1496D5CFF801E80FF91F51
:100F10008E8980838F898183888D8283898D838365
:100F20007901A12CB12C412C512C32018E899F8941
:100F3000A88DB98D481659066A067B0680F5EC8D9A
:100F4000FD8DEA0DFB1DA081B181FD010190002006
:100F5000E9F731976F01CA1ADB0AA60160E070E079
:100F6000C8018E0D9F1D0E94FA02F4E0EF0EF11CE5
:100F7000EC8DFD8DEA0DFB1D60817181A601C8011C
:100F80008E0D9F1D0E94701AEC0CFD1C8FEF481AED
:100F9000580A680A780AE2E0AE0EB11CC7CFC70152
:100FA000DF91CF911F910F91FF90EF90DF90CF9045
:100FB000BF90AF907F906F905F904F900895EF92A9
:100FC000FF920F931F93CF93DF938C017B01DC0182
:100FD00012962C911297FB012193CF011396ED915C
:100FE000FC911497EF0109900020E9F72197CE1B9F
:100FF000DF0BAE0160E070E00E94FA02D8011396A8
:101000006D917C911497AE01C70105960E94701AEC
:10101000CE010596DF91CF911F910F91FF90EF9038
:101020000895CF92DF92EF92FF920F931F93CF9389
:10103000DF937C018B01DC0112968C911297FB01EE
:10104000808313968C91139781831496ED91FC9174
:101050001597EF0109900020E9F72197CE1BDF0BD0
:10106000AE0160E070E0C80102960E94FA02D7016A
:1010700014966D917C911597AE01C80106960E9459
:10108000701ACE010696F701A681B781FD01019085
:101090000020E9F731976F01CA1ADB0AA60160E068
:1010A00070E0800F911F0E94FA022A96D7011696CF
:1010B0006D917C911797A601C8018C0F9D1F0E940E
:1010C000701ACC0DDD1DD7011896ED91FC91199782
:1010D000DF010D900020E9F711976D01CE1ADF0AAC
:1010E000A60160E070E0C8018C0F9D1F0E94FA020B
:1010F0002496F70160857185A601C8018C0F9D1F9C
:101100000E94701AC6018C0F9D1FD7011A966C9110
:101110001A971B964C911B971C963C911C971D96F9
:101120002C91F801E80FF91F6083418332832383F8
:101130000496DF91CF911F910F91FF90EF90DF9078
:10114000CF9008952FB7F89460918D0470918E041C
:1011500080918F04909190042FBF08952F923F9219
:101160004F925F926F927F928F929F92AF92BF92B7
:10117000CF92DF92EF92FF920F931F93CF93DF9363
:10118000CDB7DEB7A6970FB6F894DEBF0FBECDBFC2
:101190008C010E94A2084B015C01980125573B4F2E
:1011A0003E8B2D8BF90180819181A281B381A501B4
:1011B0009401281B390B4A0B5B0BDA01C901893FEB
:1011C0009A42A105B10510F035971082180144E844
:1011D000241A4BEF340AD1018D919C91892B79F01F
:1011E000F801E157FB4F80819181A281B38188157D
:1011F0009905AA05BB0518F4F10111821082980126
:101200002C573B4F3A8B298BA80140585B4F5C8B86
:101210004B8BC8014896988F8F8BD801AA57BB4F2C
:10122000BC8FAB8FF801EC56FB4FFE8FED8F215F2B
:101230003F4F38A32F8F42505109588B4F87865903
:101240009B4F9A8F898F1996BAA3A9A3A5019401E0
:101250002C5E3F4F4F4F5F4F2BA33CA34DA35EA38C
:10126000F80184899589A689B789892B8A2B8B2BCC
:1012700081F4D80112968D919C911397DC01ED9128
:10128000FC910680F781E02D19959C0197FF14C011
:101290008DC20E94A208DC01CB0188199909AA0914
:1012A000BB09F801C488D588E688F788C816D9062E
:1012B000EA06FB06F0F6A1C2A989BA898D919C9134
:1012C0001197820F931F8D939C93F101408151815F
:1012D00047305105D9F4A98DBA8D8D919C91119704
:1012E000AC014F5F5F4F4D935C93F801E80FF91F1E
:1012F000208FEF85F8898081918101979183808388
:10130000892B09F0ADCF88E090E032C0411551053E
:1013100039F52F3F310589F481E090E0F1019183A7
:1013200080832BA13CA14DA15EA1A9A1BAA12D93BF
:101330003D934D935C93139793CF0E94A208DC01D9
:10134000CB0188199909AA09BB0989389341A105DC
:10135000B10508F485CFF801EA57FB4F10824DC262
:1013600041305105A9F42E3F310531F482E090E07F
:10137000D1018D939C9374CFF10111821082AB8DBA
:10138000BC8D8C9181116CCFC8010E948E1068CFEA
:101390004230510591F4EF85F88931832083A98D7E
:1013A000BA8D1D921C9283E090E0F10191838083BD
:1013B000A989BA892D933C9353CF4330510569F4E1
:1013C000322F2227EF85F88980819181280F391FDC
:1013D0003183208384E090E0CBCF4430510581F409
:1013E00060E071E00E94761D8F3F910531F485E049
:1013F00090E0F1019183808333CF1182108230CF4E
:101400004530510571F4EB89FC893183208386E0F6
:1014100090E0D1018D939C93E989FA8931832083EF
:101420001FCF46305105A9F4322F2227AB89BC8942
:101430008D919C911197280F391F2D933C9387E034
:1014400090E0F10191838083AF85B8898D919C9163
:1014500057CF4830510509F003CFF10111821082B6
:1014600060E071E00E94761D8F3F910509F0F8CE93
:10147000AB89BC898D919C91009709F0C6C0C801C9
:101480000E948E1086E292E09A8389831C821B82DE
:1014900087E793E09E838D8398878F839A878987D8
:1014A0001B861C861D861E866801B8EECB1ABBEF14
:1014B000DB0A7801E6EBEE1AEBEFFE0A412C22E0A4
:1014C000522E612C712CD601ED91FC913097A9F12F
:1014D000848195819C838B83808191819E838D8380
:1014E00082819381DC01ED91FC910480F581E02DF6
:1014F000199598878F83D601ED91FC918281938114
:10150000DC01ED91FC910680F781E02D19959A8719
:1015100089874B865C866D867E86D601ED91FC912F
:1015200060857185D801ED91FC910190F081E02DED
:10153000AE014F5F5F4FC8011995B2E0CB0ED11CD1
:10154000EC14FD0409F0BFCF412C92E0592E612C20
:10155000712CF701A081B1811097E1F112968D9164
:101560009C9113979C838B8314968D919C911597D6
:101570009E838D83ED91FC9111970480F581E02D80
:10158000CD01199598878F83D7018D919C91DC01AE
:10159000ED91FC910680F781E02D19959A87898756
:1015A0004B865C866D867E86D801ED91FC91C0806D
:1015B000D180F70180819181DC01ED91FC91028065
:1015C000F381E02D1995AE014F5F5F4FBC01C8015B
:1015D000F6011995F2E0EF0EF11CE214F30409F0A4
:1015E000B8CFF801EA57FB4F81E0808331968082C3
:1015F0009182A282B382AD89BE898D929D92AD9275
:10160000BC9213978FEF9FEFFDC08A30910509F0D0
:10161000A2C08EE392E09A8389831B821C821D8282
:101620001E821F82188619861A860E94A208F80157
:10163000C084D184E284F3849B01AC012C193D0960
:101640004E095F0969017A016F89788DCE01019693
:101650000E94B704C701B60128EE33E040E050E035
:101660000E948A1DCB80DC80ED80FE80C20ED31EDE
:10167000E41EF51ECB82DC82ED82FE829B01AC0172
:1016800060E472E48FE090E00E94661DCF80D88411
:10169000E984FA84DC01CB018C0D9D1DAE1DBF1DBC
:1016A0008F839887A987BA870E94A208CF80D884A1
:1016B000E984FA8436E3D31A35E6E30A34ECF30A14
:1016C00028EE33E040E050E00E948A1D29013A01F3
:1016D0009B01AC0160E472E48FE090E00E94661D23
:1016E000A7019601261B370B480B590BCA01B901FC
:1016F000CB80DC80ED80FE8031E0C31AD108E108A8
:10170000F108A7019601241935094609570929014D
:101710003A0120E03AEC4AE95BE30E948A1D73013A
:101720006201C20ED31EE41EF51ED8011C96CD9296
:10173000DD92ED92FC921F97F801608B718B828B8A
:10174000938B0E94A208AD89BE896D937D938D9382
:101750009C93139785CD8630910559F46F89788DC8
:101760008D8D9E8D0E944B0581E0EF8DF8A18083C9
:1017700077CD8B30910521F4AB8DBC8D1C9270CD53
:10178000FC01EF53FE4FEE0FFF1FE00FF11F8081B2
:101790009181009709F464CDDC01ED91FC910190F9
:1017A000F081E02D6F89788D19955ACDF801EA57AF
:1017B000FB4F8081882321F17801B9E7EB1ABBEF59
:1017C000FB0AF70180819181A281B381A501940177
:1017D000281B390B4A0B5B0BDA01C901853C994088
:1017E000A105B10568F0C8010E948E10D7018D9245
:1017F0009D92AD92BC92139703C08EEF9FEF02C0F3
:1018000080E090E0A6960FB6F894DEBF0FBECDBF85
:10181000DF91CF911F910F91FF90EF90DF90CF90CC
:10182000BF90AF909F908F907F906F905F904F9000
:101830003F902F9008951F920F920FB60F92112490
:101840002F933F938F939F93AF93BF9380918D047A
:1018500090918E04A0918F04B091900430918C04EB
:1018600023E0230F2D3720F40196A11DB11D05C0E3
:1018700026E8230F0296A11DB11D20938C048093AE
:101880008D0490938E04A0938F04B0939004809164
:10189000810C9091820CA091830CB091840C0196E4
:1018A000A11DB11D8093810C9093820CA093830C99
:1018B000B093840CBF91AF919F918F913F912F91E5
:1018C0000F900FBE0F901F901895CF92DF92EF925E
:1018D000FF920F931F93CF93DF936C01EB017B017A
:1018E000E40EF51E00E010E0CE15DF0561F0699111
:1018F000D601ED91FC910190F081E02DC601199582
:10190000080F191FF1CFC801DF91CF911F910F91DF
:10191000FF90EF90DF90CF900895CF92DF92EF92FB
:10192000FF920F931F93CF93DF93EC017A0169012C
:10193000E881F9810284F385E02D1995E881F98128
:101940000680F781E02D9801A601B701CE01DF9155
:10195000CF911F910F91FF90EF90DF90CF9019944E
:101960008F929F92AF92BF92CF92DF92EF92FF92AF
:101970000F931F93CF93DF93CDB7DEB7AC970FB61E
:10198000F894DEBF0FBECDBFDC011696ED91FC9141
:101990001797319609F479C059017A016B018C01CE
:1019A000FE0131964F0188E2DF011D928A95E9F729
:1019B000D801ED91FC910488F589E02DB401C801AE
:1019C0001995009709F05DC01CA61BA61AA619A6BA
:1019D000D801ED91FC910688F789E02D9E01275DE5
:1019E0003F4FAE01455D5F4FB401C80119950097A7
:1019F00009F047C0A114B10439F088E2F401D5011F
:101A000001900D928A95E1F7C114D10411F18BA5D3
:101A10009CA597FD03C021E030E002C02FEF3FEF0F
:101A20009F77829FB001839F700D929F700D11244C
:101A3000072E000C880B990B0E94901B20E030E0D1
:101A400040E251E40E94E61AF601608371838283CA
:101A50009383E114F104B9F069A57AA5072E000C6F
:101A6000880B990B0E94901B20E030E040E251E48B
:101A70000E94E61AD7016D937D938D939C931397E3
:101A800002C0282F04C020E001C027E190E0822F8F
:101A9000AC960FB6F894DEBF0FBECDBFDF91CF91ED
:101AA0001F910F91FF90EF90DF90CF90BF90AF907C
:101AB0009F908F9008958F929F92AF92BF92CF92F6
:101AC000DF92EF92FF920F931F93CF93DF93EC017E
:101AD0008B015A017901E881F9810288F389E02DAF
:101AE0001995C82EB801685F7F4FE881F981028897
:101AF000F389E02DCE011995D82EB801605F7F4F94
:101B0000E881F9810288F389E02DCE011995882EAC
:101B1000B801685E7F4FE881F9810288F389E02D82
:101B2000CE011995982EB801605E7F4FE881F9814A
:101B30000288F389E02DCE0119959C2D9D0D980DFD
:101B4000990D89130FC0892D90E09829F501918393
:101B500080838D2D90E09C29F7019183808380E024
:101B600090E002C085E190E0DF91CF911F910F914D
:101B7000FF90EF90DF90CF90BF90AF909F908F90AD
:101B8000089547E050E080E0FB012191BF01042E61
:101B900001C0220F0A94EAF7820F41505109A0F7C1
:101BA0000895FC01828590E00895FC01818590E014
:101BB0000895DC0117967C936E931697FB01E6530C
:101BC000FD4FE4911996EC931997FB01EC57FD4FEB
:101BD00064911A966C930895262F2D7F29F4FC01A9
:101BE000608780E090E0089588E190E00895CF92CA
:101BF000DF92EF92FF920F931F93CF93DF93EC014D
:101C00007A016901E881F9810284F385E02D199553
:101C1000E881F9810280F381E02D9801A601B701E6
:101C2000CE01DF91CF911F910F91FF90EF90DF9048
:101C3000CF901994CF92DF92EF92FF920F931F9360
:101C4000CF93DF93CDB7DEB728970FB6F894DEBFFA
:101C50000FBECDBFDC011696ED91FC911797319622
:101C600091F18A017B011D821E821F8218861982D2
:101C70001A821B821C82DC01ED91FC910680F781A7
:101C8000E02DAE014F5F5F4FBE016B5F7F4F199537
:101C90006C01892BB1F4E114F10441F06D817E8176
:101CA0008F8198850E94581BF701608301151105EB
:101CB00041F069817A818B819C810E94581BD801F7
:101CC0006C93C60102C087E190E028960FB6F894A5
:101CD000DEBF0FBECDBFDF91CF911F910F91FF905F
:101CE000EF90DF90CF9008950F931F93CF93DF93E2
:101CF000FC01A685B7858D01005C1F4FE801888136
:101D0000998101968F739927AD014E5B5F4FEA0170
:101D10002881398128173907D1F3E80128813981D1
:101D2000A20FB31F6C93A685B785A05CBF4F119619
:101D30009C938E93A689B7892C9181E090E0078CC3
:101D400002C0880F991F0A94E2F7822B8C9381E0DE
:101D500081A30488F589E02D80818064808381E0FF
:101D600090E0DF91CF911F910F910895FC0181A127
:101D7000882329F0A489B5898C9186FFFBCF11A215
:101D80000895FC01A485B585FD01E05CFF4F20812D
:101D900031813296808191812817390779F08081CD
:101DA0009181A80FB91F8C91208131812F5F3F4F06
:101DB0002F7333273183208390E008958FEF9FEFB7
:101DC0000895DC011C96ED91FC911D97DF01A05C4C
:101DD000BF4F2D913C91119712968D919C91119727
:101DE0002817390739F08D919C91E80FF91F8081F0
:101DF00090E008958FEF9FEF0895FC0124853585CD
:101E0000F901E05CFF4F8081918132962081318120
:101E1000821B930B8F7399270895EF92FF920F9374
:101E20001F93CF93DF93EC018B0188E2FB011192AA
:101E30008A95E9F761E08E810E94521360E08E81FD
:101E40000E94D8128AE99FE00197F1F761E08E8144
:101E50000E94D81268858E810E9452138AE990E010
:101E60000197F1F7E881F9810088F189E02D26E0FA
:101E700030E04AE050E060E0CE0119956E31710526
:101E80008105910534F4B82FA72F962F88278061FC
:101E90006FC0E881F9810088F189E02D26E030E00B
:101EA0004AE050E061E0CE01199562337105810589
:101EB000910534F4B82FA72F962F8827816158C039
:101EC0007801F8E2EF0EF11CE881F9810088F189D0
:101ED000E02D26E030E04AE050E060E0CE011995C8
:101EE000683171058105910534F4B82FA72F962F1D
:101EF000882782613DC0E881F9810088F189E02D61
:101F000026E030E04AE050E061E0CE0119956B3008
:101F100071058105910534F4B82FA72F962F8827D6
:101F2000836126C021E069327105810591050CF4B9
:101F300020E0F80121938F01EE15FF0529F6E881D5
:101F4000F9810088F189E02D26E030E04AE050E098
:101F500060E0CE011995683171058105910534F471
:101F6000B82FA72F962F8827846102C080E090E0C9
:101F7000DF91CF911F910F91FF90EF9008953F92C5
:101F80004F925F926F927F928F929F92AF92BF9289
:101F9000CF92DF92EF92FF920F931F93CF93DF9335
:101FA000EC01162F7A0169010E944D144B015C016E
:101FB000112311F0398401C0312CC701880F991FFA
:101FC000880F991F9C01265031092901C601880FED
:101FD000991F880F991F9C0126503109390100E093
:101FE00010E060E070E0CB012A813B814C815D8193
:101FF00026173707480759072CF44FEF3FEF2FEF0D
:102000009FEF2BC00115110531F432E0E316F10406
:102010004CF0C20105C082E0C816D1041CF0C30117
:102020000197F1F70E944D14681979098A099B09F3
:10203000EA85F0E0EE0FFF1FE05FFC4FA591B49141
:102040003C910F5F1F4F29852323321203C097FF56
:10205000CBCFD3CF462F372F282F642F732F822F2C
:10206000DF91CF911F910F91FF90EF90DF90CF9074
:10207000BF90AF909F908F907F906F905F904F90A8
:102080003F900895AB01FC01A681B7816481758101
:10209000ED91FC9111970190F081E02DCD01199403
:1020A000E9E1FCE020E030E041915191452B71F4F1
:1020B000F901EE0FFF1FE75EF34F918380832C59E8
:1020C0003F4FFC013383228381E008952F5F3F4F10
:1020D0002931310549F780E00895E7EEFBE020E083
:1020E00030E041915191452B91F4F901EE0FFF1F22
:1020F000E951F44F9183808323583F4FFC0135838E
:1021000024832FEC37E03783268381E008952F5F07
:102110003F4F2931310529F780E008950F931F9330
:10212000CF93DF93CDB7DEB72A970FB6F894DEBF13
:102130000FBECDBF8C018EE392E09A8389831B8210
:102140001C821D821E821F82188619861A86D8015B
:10215000ED91FC910190F081E02DAE014F5F5F4F5A
:102160006AE070E0C80119950E94A208F801608732
:102170007187828793872A960FB6F894DEBF0FBEC9
:10218000CDBFDF91CF911F910F910895FB01E05CCE
:10219000FF4F20813181DB01AE5BBF4F4D915C91E0
:1021A0002F5F3F4F2F7333274217530741F0408172
:1021B0005181DB01A40FB51F8C93318320830895D7
:1021C0000895863308F0865390917B00282F28705D
:1021D000977F922B90937B008770806480937C0024
:1021E00080917A00806480937A0080917A0086FDE5
:1021F000FCCF809178002091790090E0922B089597
:1022000087E197E00E94FD0E8DE696E00E94FD0EAC
:1022100083EC95E00E94FD0E89E195E00C94FD0EA3
:102220001F920F920FB60F9211240BB60F922F939D
:102230003F938F939F93EF93FF932091D10430911D
:10224000D2048091D3049091D4042817390731F433
:10225000809131018F7D8093310114C0E091D304CE
:10226000F091D404EF56FB4F20818091D3049091DC
:10227000D40401968F7399279093D4048093D30448
:1022800020933601FF91EF919F918F913F912F9174
:102290000F900BBE0F900FBE0F901F9018951F92BE
:1022A0000F920FB60F9211240BB60F922F933F93FC
:1022B0008F939F93EF93FF9320917B0530917C0543
:1022C00080917D0590917E052817390731F4809122
:1022D000D1008F7D8093D10014C0E0917D05F091F5
:1022E0007E05E55CFA4F208180917D0590917E0509
:1022F00001968F73992790937E0580937D05209397
:10230000D600FF91EF919F918F913F912F910F9068
:102310000BBE0F900FBE0F901F9018951F920F923B
:102320000FB60F9211240BB60F922F933F938F93FA
:102330009F93EF93FF93209125063091260680917D
:102340002706909128062817390731F48091C90093
:102350008F7D8093C90014C0E0912706F091280674
:10236000EB51FA4F20818091270690912806019623
:102370008F73992790932806809327062093CE0089
:10238000FF91EF919F918F913F912F910F900BBEF5
:102390000F900FBE0F901F9018951F920F920FB6BF
:1023A0000F9211240BB60F922F933F938F939F930D
:1023B000EF93FF932091CF063091D0068091D10604
:1023C0009091D2062817390731F48091C1008F7D92
:1023D0008093C10014C0E091D106F091D206E1577C
:1023E000F94F20818091D1069091D20601968F738A
:1023F00099279093D2068093D1062093C600FF912F
:10240000EF919F918F913F912F910F900BBE0F9065
:102410000FBE0F901F9018951F920F920FB60F923C
:1024200011240BB60F922F933F934F935F936F93AB
:102430007F938F939F93AF93BF93EF93FF9380917D
:10244000300182FD07C08091360165ED74E00E9485
:10245000C61002C080913601FF91EF91BF91AF91FC
:102460009F918F917F916F915F914F913F912F91AC
:102470000F900BBE0F900FBE0F901F9018951F92DC
:102480000F920FB60F9211240BB60F922F933F931A
:102490004F935F936F937F938F939F93AF93BF936C
:1024A000EF93FF938091D00082FD07C08091D6000A
:1024B0006FE775E00E94C61002C08091D600FF91C0
:1024C000EF91BF91AF919F918F917F916F915F91AC
:1024D0004F913F912F910F900BBE0F900FBE0F9019
:1024E0001F9018951F920F920FB60F9211240BB6E2
:1024F0000F922F933F934F935F936F937F938F939D
:102500009F93AF93BF93EF93FF938091C80082FD99
:1025100007C08091CE0069E276E00E94C61002C03A
:102520008091CE00FF91EF91BF91AF919F918F91DC
:102530007F916F915F914F913F912F910F900BBEC3
:102540000F900FBE0F901F9018951F920F920FB60D
:102550000F9211240BB60F922F933F934F935F93DB
:102560006F937F938F939F93AF93BF93EF93FF935B
:102570008091C00082FD07C08091C60063ED76E0C7
:102580000E94C61002C08091C600FF91EF91BF91DA
:10259000AF919F918F917F916F915F914F913F91FB
:1025A0002F910F900BBE0F900FBE0F901F9018959C
:1025B000362F90E0FC01E25AFC4F4491FC01E653B7
:1025C000FD4F2491FC01EC57FD4F9491992309F4A0
:1025D00068C0442309F451C050E0FA013197E13159
:1025E000F10508F04AC08827EE58FF4F8F4F0C9432
:1025F000CB1D809180008F7703C0809180008F7DFC
:10260000809380003AC084B58F7702C084B58F7DF7
:1026100084BD33C08091B0008F7703C08091B0003B
:102620008F7D8093B00029C0809190008F7707C084
:10263000809190008F7D03C080919000877F809370
:1026400090001BC08091A0008F7707C08091A000F0
:102650008F7D03C08091A000877F8093A0000DC074
:10266000809120018F7707C0809120018F7D03C06A
:1026700080912001877F80932001E92FF0E0EE0F09
:10268000FF1FEC5BFC4FA591B4919FB7F8943111FB
:1026900004C08C912095282302C0EC912E2B2C9302
:1026A0009FBF0895CF93DF9390E0FC01E653FD4F69
:1026B0002491FC01EC57FD4F8491882361F190E057
:1026C000880F991FFC01E65DFC4FC591D491FC0178
:1026D000EC5BFC4FA591B491611109C09FB7F894D0
:1026E0008881209582238883EC912E230BC0623051
:1026F00061F49FB7F8948881322F309583238883C3
:10270000EC912E2B2C939FBF06C08FB7F894E881D5
:102710002E2B28838FBFDF91CF9108951F93CF93E6
:10272000DF93182FEB0161E00E945213209711F400
:1027300060E004C0CF3FD10539F461E0812FDF9123
:10274000CF911F910C94D812E12FF0E0E25AFC4F88
:10275000E4918E2F90E0FC013197E131F10508F012
:1027600093C08827ED57FF4F8F4F0C94CB1D84B536
:10277000806884BDC7BD8DC084B5806284BDC8BD7E
:1027800088C080918000806880938000D093890009
:10279000C09388007EC0809180008062809380001A
:1027A000D0938B00C0938A0074C08091B000806881
:1027B0008093B000C093B3006CC08091B000806281
:1027C0008093B000C093B40064C080919000806892
:1027D00080939000D0939900C09398005AC0809144
:1027E0009000806280939000D0939B00C0939A00E9
:1027F00050C080919000886080939000D0939D009D
:10280000C0939C0046C08091A00080688093A00087
:102810008091A0008F7B8093A000D093A900C093EB
:10282000A80037C08091A00080628093A000D09360
:10283000AB00C093AA002DC08091A0008860809357
:10284000A000D093AD00C093AC0023C080912001C4
:10285000806880932001D0932901C093280119C07A
:1028600080912001806280932001D0932B01C0933E
:102870002A010FC080912001886080932001D093AD
:102880002D01C0932C0105C0C038D1050CF055CFE7
:102890004FCFDF91CF911F9108953FB7F89480916A
:1028A000810C9091820CA091830CB091840C26B580
:1028B000A89B05C02F3F19F00196A11DB11D3FBF78
:1028C000BA2FA92F982F8827820F911DA11DB11D06
:1028D000BC01CD0142E0660F771F881F991F4A9502
:1028E000D1F70895CF92DF92EF92FF9210921A07DC
:1028F0001092190788EEC82E83E0D82EE12CF12C17
:10290000C0921B07D0921C07E0921D07F0921E0791
:102910006AE472E0709318076093170783ED96E0FE
:1029200090932407809323078FE896E090932607DF
:102930008093250785EC90E09093280780932707E4
:1029400084EC90E090932A078093290780EC90E034
:1029500090932C0780932B0781EC90E090932E07A7
:1029600080932D0782EC90E09093300780932F079F
:1029700086EC90E0909332078093310744E04093D7
:10298000330733E03093340727E02093350795E091
:102990009093360781E0809337071092700610926B
:1029A0006F06C0927106D0927206E0927306F092A2
:1029B000740670936E0660936D06E9E2F6E0F0939C
:1029C0007A06E0937906E5EEF5E0F0937C06E09375
:1029D0007B06EDECF0E0F0937E06E0937D06ECECF8
:1029E000F0E0F0938006E0937F06E8ECF0E0F093EF
:1029F0008206E0938106E9ECF0E0F0938406E09330
:102A00008306EAECF0E0F0938606E0938506EEECB0
:102A1000F0E0F0938806E0938706409389063093B0
:102A20008A0620938B0690938C0680938D061092D5
:102A3000C6051092C505C092C705D092C805E092A0
:102A4000C905F092CA057093C4056093C305EFE70A
:102A5000F5E0F093D005E093CF05EBE3F5E0F093DC
:102A6000D205E093D105E5EDF0E0F093D405E093D5
:102A7000D305E4EDF0E0F093D605E093D505E0ED65
:102A8000F0E0F093D805E093D705E1EDF0E0F093A6
:102A9000DA05E093D905E2EDF0E0F093DC05E09390
:102AA000DB05E6EDF0E0F093DE05E093DD05409315
:102AB000DF053093E0052093E1059093E2058093D4
:102AC000E30510921C0510921B05C0921D05D092C3
:102AD0001E05E0921F05F092200570931A05609381
:102AE000190565ED74E0709326056093250561E98D
:102AF00074E0709328056093270565E371E0709397
:102B00002A056093290564E371E070932C056093B6
:102B10002B0560E371E070932E0560932D0561E352
:102B200071E07093300560932F0562E371E070935C
:102B300032056093310566E371E07093340560936C
:102B40003305409335053093360520933705909330
:102B50003805809339058EE992E09093D0078093F1
:102B6000CF0787E197E09093D2078093D10780E069
:102B700091EEA0E0B0E08093D3079093D407A093A8
:102B8000D507B093D6071092550C82E992E0909346
:102B9000640C8093630C1092650C1092660C10927A
:102BA000670C1092680C10926E0C10926D0C1092C3
:102BB0006F0C1092700C1092710C1092720C10929B
:102BC000780C1092770C1092790C10927A0C10926B
:102BD0007B0C10927C0C1092800C10927F0C87EE74
:102BE0009BE0E9E1FCE0DC011D921D92EA17FB0786
:102BF000D9F72BE43CE0119211922E173F07D9F739
:102C0000A7EEB7E0E7EEF9E01D92EA17FB07E1F760
:102C100011928E179F07E1F71092E3071092E407D5
:102C20001092E5071092E6078AE592E09093C507B7
:102C30008093C40780E49BE4ACE4B0E08093C607D3
:102C40009093C707A093C807B093C9078FEF9FEF72
:102C50009093CB078093CA071092CC078093CD073F
:102C60008093CE0764E370E084EC97E00E94D90D76
:102C700086E792E09093C5078093C4070E94A2085C
:102C80000E948E1B6093C0077093C1078093C20798
:102C90009093C30788ED92E09093B1078093B007BB
:102CA00080EC92E09093B7078093B6071092B80734
:102CB0001092B9071092BA071092BB0725E435E0CD
:102CC0003093BD072093BC0721E030E03093BF076D
:102CD0002093BE0746E354E05093B5074093B407F2
:102CE00064EB72E07093A4076093A30748EA52E094
:102CF0005093AA074093A9071092AB07E9E3F5E0C8
:102D0000F093AD07E093AC073093AF072093AE0785
:102D1000EEE3F4E0F093A807E093A707709397071A
:102D20006093960750939D0740939C0710929E07CF
:102D3000EDE2F5E0F093A007E0939F073093A20740
:102D40002093A107E8E4F4E0F0939B07E0939A074F
:102D500070938A07609389075093900740938F0779
:102D60001092910741E255E05093930740939207E8
:102D7000309395072093940722E534E030938E0733
:102D800020938D0790938407809383071092850783
:102D90001092860710928707109288072CE534E07E
:102DA00030937A072093790723E837E030937C0744
:102DB00020937B07109282071092810790937407EB
:102DC0008093730710927507109276071092770719
:102DD0001092780726E634E030936A07209369075B
:102DE00023E737E030936C0720936B07109272074C
:102DF00010927107909364078093630710926507A0
:102E00001092660710926707109268072FE634E069
:102E100030935A072093590723E637E030935C0735
:102E200020935B07109262071092610790935407FA
:102E30008093530710925507109256071092570728
:102E40001092580729E734E030934A072093490746
:102E500023E537E030934C0720934B07109252073D
:102E600010925107909344078093430710924507AF
:102E700010924607109247071092480783E894E0A3
:102E800090933A078093390783E497E090933C0747
:102E900080933B071092420710924107FF90EF90FA
:102EA000DF90CF900895789484B5826084BD84B516
:102EB000816084BD85B5826085BD85B5816085BD35
:102EC00080916E00816080936E00109281008091ED
:102ED0008100826080938100809181008160809375
:102EE0008100809180008160809380008091B1009A
:102EF00084608093B1008091B00081608093B000C5
:102F00008091910082608093910080919100816016
:102F100080939100809190008160809390008091D7
:102F2000A10082608093A1008091A10081608093C4
:102F3000A1008091A00081608093A0008091210178
:102F40008260809321018091210181608093210121
:102F50008091200181608093200180917A008460BB
:102F600080937A0080917A00826080937A008091C9
:102F70007A00816080937A0080917A0080688093E3
:102F80007A001092C10061E089E00E94521361E072
:102F90008CE00E94521361E08BE00E94521361E0CA
:102FA0008AE00E945213C090D307D090D407E090DB
:102FB000D507F090D607C091D107D091D207C114A0
:102FC00021EED206E104F10409F1EC89FD8981E0EA
:102FD00090E008A002C0880F991F0A94E2F780834E
:102FE00060E079E08DE390E0A70196010E948A1DE0
:102FF000DA01C9010197A109B109B695A79597957D
:1030000087959C01211580E13807A8F0EC89FD899E
:10301000108260E874E88EE190E0A70196010E94BA
:103020008A1DDA01C9010197A109B109B695A795D1
:10303000979587959C01E889F9893083EA89FB890E
:10304000208319A2EE89FF89408181E090E09C01F4
:103050000C8C02C0220F331F0A94E2F7242B20832A
:10306000EE89FF8940819C010D8C02C0220F331F25
:103070000A94E2F7242B2083EE89FF8940819C018A
:103080000E8C02C0220F331F0A94E2F7242B2083F8
:10309000EE89FF8920810F8C02C0880F991F0A9446
:1030A000E2F780958223808310924C0C10924B0C97
:1030B00010924E0C10924D0C1092520C1092510C1A
:1030C0001092500C10924F0CE9E1FCE080E090E08F
:1030D00021913191232B81F4FC01EE0FFF1FE75E5C
:1030E000F34F20EB37E0318320838C599F4F90932F
:1030F000B3078093B20704C001968931910541F767
:1031000083EA97E00E94501086E997E00E945010F1
:1031100089E897E00E94501089E697E00E946D10C0
:1031200089E797E00E946D1089E597E00E946D1095
:1031300089E497E00E946D1089E397E00E946D108A
:1031400080918B0C90918C0CA0918D0CB0918E0C79
:10315000883E23E09207A105B10534F50196A11D33
:10316000B11D80938B0C90938C0CA0938D0CB0931D
:103170008E0C86E30E94E110092E000CAA0BBB0BFB
:103180004091870C5091880C6091890C70918A0C49
:10319000840F951FA61FB71F8093870C9093880CF0
:1031A000A093890CB0938A0C0E94A2080E948E1BE7
:1031B0002091C0073091C1074091C2075091C307C9
:1031C0000E94791A20E030E048EC52E40E941C1C76
:1031D00018160CF096C00E94A2080E948E1B6093E5
:1031E000C0077093C1078093C2079093C30720E084
:1031F00030E045E85CE066E87CE084EC97E00E9423
:103200001A0E8091860C90E0A0E0B0E080937507E4
:1032100090937607A0937707B093780763E777E0FA
:1032200089E697E00E9442108091850C90E0A0E032
:10323000B0E08093850790938607A0938707B093AB
:10324000880763E877E089E797E00E944210609181
:10325000870C7091880C8091890C90918A0C209138
:103260008B0C30918C0C40918D0C50918E0C0E94E7
:10327000AC1D209365073093660740936707509312
:1032800068071092870C1092880C1092890C10928B
:103290008A0C10928B0C10928C0C10928D0C109248
:1032A0008E0C63E677E089E597E00E9442108DE39B
:1032B0000E94E110092E000CAA0BBB0B809355074E
:1032C00090935607A0935707B093580763E577E0AC
:1032D00089E497E00E94421086E00E94E110092EE6
:1032E000000CAA0BBB0B8093450790934607A09355
:1032F0004707B093480763E477E089E397E00E94CB
:1033000042108FEC97E00E94AE080E94001118CF87
:10331000F8940C94011E6F927F928F929F92AF92BD
:10332000BF92CF92DF92EF92FF920F931F93CF93B2
:10333000DF93009789F4CB01DF91CF911F910F911B
:10334000FF90EF90DF90CF90BF90AF909F908F90C5
:103350007F906F900C94211CFC01E60FF71F9C01DD
:1033600022503109E217F30708F4A9C0EC01D90192
:103370000D911C91119706171707B0F00530110534
:1033800008F49BC0C80104978617970708F495C0F6
:1033900002501109061B170B019311936D937C9337
:1033A000CF010E94B91C89C05B01A01AB10A4C016F
:1033B000800E911EA091910CB091920C612C712CF9
:1033C000E12CF12C109709F446C08D919C91119736
:1033D000A815B905B1F56C0142E0C40ED11CCA14A0
:1033E000DB0478F14C018A189B08640142E0C40EAA
:1033F000D11C1296BC9012971396AC91B5E0CB16E7
:10340000D10440F0B282A38391828082D9016D936E
:103410007C9309C00E5F1F4F800F911FF9019183AC
:103420008083EB2DFA2FE114F10431F0D7011396CC
:10343000FC93EE93129741C0F093920CE093910CA1
:103440003CC06816790608F43C017D0112960D9087
:10345000BC91A02DB7CF80918F0C9091900C8816C5
:103460009906E1F466167706C8F4809100029091FF
:103470000102009741F48DB79EB74091040250912C
:103480000502841B950BE817F907C8F4F093900C1C
:10349000E0938F0CF901718360830FC0CB010E9410
:1034A000211C7C01009759F0A801BE010E94701AEE
:1034B000CE010E94B91CC70104C0CE0102C080E049
:1034C00090E0DF91CF911F910F91FF90EF90DF90EF
:1034D000CF90BF90AF909F908F907F906F90089506
:1034E000FB01DC0102C001900D9241505040D8F721
:1034F00008955058BB27AA270E94911A0C94E21BEA
:103500000E94D41B38F00E94DB1B20F039F49F3F4F
:1035100019F426F40C94D11B0EF4E095E7FB0C94FF
:10352000CB1BE92F0E94F31B58F3BA1762077307EE
:103530008407950720F079F4A6F50C94151C0EF479
:10354000E0950B2EBA2FA02D0B01B90190010C01B3
:10355000CA01A0011124FF27591B99F0593F50F4CB
:10356000503E68F11A16F040A22F232F342F442723
:10357000585FF3CF469537952795A795F04053951B
:10358000C9F77EF41F16BA0B620B730B840BBAF0EB
:103590009150A1F0FF0FBB1F661F771F881FC2F756
:1035A0000EC0BA0F621F731F841F48F4879577956A
:1035B0006795B795F7959E3F08F0B0CF9395880F24
:1035C00008F09927EE0F9795879508950E94FA1AAB
:1035D0000C94E21B0E94DB1B58F00E94D41B40F0AD
:1035E00029F45F3F29F00C94CB1B51110C94161C4D
:1035F0000C94D11B0E94F31B68F39923B1F355235C
:1036000091F3951B550BBB27AA27621773078407F5
:1036100038F09F5F5F4F220F331F441FAA1FA9F38B
:1036200035D00E2E3AF0E0E832D091505040E69579
:10363000001CCAF72BD0FE2F29D0660F771F881FDA
:10364000BB1F261737074807AB07B0E809F0BB0BCD
:10365000802DBF01FF2793585F4F3AF09E3F5105E1
:1036600078F00C94CB1B0C94161C5F3FE4F3983E4F
:10367000D4F3869577956795B795F7959F5FC9F7CA
:10368000880F911D9695879597F90895E1E0660F4B
:10369000771F881FBB1F621773078407BA0720F0C4
:1036A000621B730B840BBA0BEE1F88F7E09508952D
:1036B0000E945F1B6894B1110C94161C08950E941F
:1036C000FB1B88F09F5798F0B92F9927B751B0F09E
:1036D000E1F0660F771F881F991F1AF0BA95C9F796
:1036E00014C0B13091F00E94151CB1E008950C9403
:1036F000151C672F782F8827B85F39F0B93FCCF3B6
:10370000869577956795B395D9F73EF49095809512
:10371000709561957F4F8F4F9F4F0895E89409C032
:1037200097FB3EF490958095709561957F4F8F4FF4
:103730009F4F9923A9F0F92F96E9BB279395F6950A
:10374000879577956795B795F111F8CFFAF4BB0F88
:1037500011F460FF1BC06F5F7F4F8F4F9F4F16C0EC
:10376000882311F096E911C0772321F09EE8872F76
:10377000762F05C0662371F096E8862F70E060E032
:103780002AF09A95660F771F881FDAF7880F9695AB
:10379000879597F9089597F99F6780E870E060E052
:1037A00008959FEF80EC089500240A9416161706DA
:1037B00018060906089500240A9412161306140622
:1037C00005060895092E0394000C11F4882352F085
:1037D000BB0F40F4BF2B11F460FF04C06F5F7F4F3D
:1037E0008F4F9F4F089557FD9058440F551F59F024
:1037F0005F3F71F04795880F97FB991F61F09F3FDE
:1038000079F087950895121613061406551FF2CF06
:103810004695F1DF08C0161617061806991FF1CF56
:1038200086957105610508940895E894BB2766277D
:103830007727CB0197F908950E94421D08F48FEF76
:1038400008950F931F93CF93DF938230910510F467
:1038500082E090E0E091910CF091920C20E030E059
:10386000A0E0B0E0309719F14081518102811381CD
:1038700048175907C8F08417950769F4109731F075
:1038800012960C93129713961C9327C00093910CD9
:103890001093920C22C02115310519F042175307DD
:1038A00018F49A01BD01EF01DF01F801DBCF21150A
:1038B0003105F9F0281B390B2430310580F48A8159
:1038C0009B816115710521F0FB019383828304C004
:1038D0009093920C8093910CFE01329644C0FE01AD
:1038E000E20FF31F8193919322503109398328838A
:1038F0003AC020918F0C3091900C232B41F42091F1
:103900000202309103023093900C20938F0C20918F
:103910000002309101022115310541F42DB73EB767
:103920004091040250910502241B350BE0918F0C4D
:10393000F091900CE217F307A0F42E1B3F0B281711
:10394000390778F0AC014E5F5F4F2417350748F018
:103950004E0F5F1F5093900C40938F0C8193919367
:1039600002C0E0E0F0E0CF01DF91CF911F910F9115
:103970000895CF93DF93009709F481C0FC0132973B
:1039800013821282A091910CB091920C109781F445
:1039900020813181820F931F20918F0C3091900CE8
:1039A0002817390751F5F093900CE0938F0C67C0FE
:1039B000ED0120E030E0CE17DF0740F44A815B8163
:1039C0009E0141155105F1F0EA01F5CFD383C28381
:1039D00040815181840F951FC817D90759F48881F8
:1039E0009981840F951F0296918380838A819B81A0
:1039F000938382832115310529F4F093920CE0938F
:103A0000910C3DC0E901FB83EA8349915991C40FB0
:103A1000D51FEC17FD0761F480819181840F951FFC
:103A20000296E90199838883828193819B838A83AB
:103A3000E0E0F0E012968D919C911397009719F0B9
:103A4000FD01DC01F7CF8D919C9111979D012E5FB7
:103A50003F4F820F931F20918F0C3091900C2817AD
:103A6000390769F4309729F41092920C1092910C56
:103A700002C013821282B093900CA0938F0CDF913E
:103A8000CF910895990F0008550FAA0BE0E8FEEFBB
:103A900016161706E807F907C0F012161306E40712
:103AA000F50798F0621B730B840B950B39F40A260B
:103AB00061F0232B242B252B21F408950A2609F4E9
:103AC000A140A6958FEF811D811D0895DB018F9385
:103AD0009F930E94D31DBF91AF91A29F800D911D16
:103AE000A39F900DB29F900D1124089597FB072E70
:103AF00016F4009407D077FD09D00E94DE1D07FC64
:103B000005D03EF4909581959F4F089570956195ED
:103B10007F4F0895A1E21A2EAA1BBB1BFD010DC009
:103B2000AA1FBB1FEE1FFF1FA217B307E407F5076D
:103B300020F0A21BB30BE40BF50B661F771F881F49
:103B4000991F1A9469F760957095809590959B01DF
:103B5000AC01BD01CF010895052E97FB1EF4009422
:103B60000E94C31D57FD07D00E948A1D07FC03D089
:103B70004EF40C94C31D50954095309521953F4FC0
:103B80004F4F5F4F089590958095709561957F4F49
:103B90008F4F9F4F0895EE0FFF1F881F8BBF079019
:103BA000F691E02D19940E94F21DA59F900DB49FEF
:103BB000900DA49F800D911D11240895AA1BBB1B7D
:103BC00051E107C0AA1FBB1FA617B70710F0A61B1D
:103BD000B70B881F991F5A95A9F780959095BC013E
:103BE000CD010895A29FB001B39FC001A39F700DA6
:103BF000811D1124911DB29F700D811D1124911DF5
:063C00000895F894FFCFC7
:103C06000000930C2000726F7373657269616C5FBC
:103C16006D7367732F526571756573745061726148
:103C26006D00000000001108C303C003BD030000BF
:103C36000000DF0767036403610300000000FD0462
:103C4600B704B404B10400000000740E650CFD0E48
:103C5600C10EE10EB60E00000000EC0D1A0EF70DB7
:103C6600E010E010D90DD50DD10DBF0FC10DE0103C
:103C76005B0D00000000EC0D1A0EF70DB00C8D0C5C
:103C8600D90DD50DD10DBF0FC10D0D0F5B0D000068
:103C9600000006074B055E035B03000000002802D8
:103CA600AE080602000000001E03170318021502E4
:103CB600000000001F021B0218021502000000008F
:103CC600470325030E020B0200000000E010E0107F
:103CD600E010E01000000000320311020E020B0299
:103CE60064613539303966626533373861656166D6
:103CF600383565353437653833306363316262375A
:103D0600007374645F6D7367732F496E743332008A
:103D1600386239346331623533646236316662360D
:103D2600616564343036303238616436333332613B
:103D3600007374645F6D7367732F426F6F6C004D11
:103D46006573736167652066726F6D206465766959
:103D560063652064726F707065643A206D65737375
:103D6600616765206C6172676572207468616E2098
:103D76006275666665722E0039663065393862642A
:103D860061363539383139383664646635336166BB
:103D960061376134306534390031316162643733FB
:103DA6003163323539333332363163643631383341
:103DB60062643132643632393500726F73736572FC
:103DC60069616C5F6D7367732F4C6F670030616458
:103DD600353166383866633434383932663863319B
:103DE6003036383430373736343630303500726F47
:103DF6007373657269616C5F6D7367732F546F704F
:103E06006963496E666F00636437313636633734EB
:103E160063353532633331316662636332666535E5
:103E260061376263323839007374645F6D73677328
:103E36002F54696D65006C65645F726177007770F9
:103E4600756D705F726177006E70756D705F72610F
:103E560077006170756D705F7261770068756D6966
:103E6600645F7261770074656D705F726177006C74
:103E7600696768745F726177006C6576656C5F72FE
:0C3E86006177007464735F726177000064
:00000001FF
